:020000040800F2
:100000005804002001010008470B0008990A000865
:10001000450B00086D010008590C000800000000A5
:100020000000000000000000000000004B0B000872
:100030006F01000800000000490B00084D0B00088C
:100040001B0100081B0100081B0100081B01000820
:100050001B0100081B0100081B0100081B01000810
:100060001B0100081B0100081B0100081B01000800
:100070001B0100081B0100081B0100081B010008F0
:100080001B0100081B0100081B0100081B010008E0
:100090001B0100081B0100081B0100081B010008D0
:1000A0001B0100081B0100081B0100081B010008C0
:1000B0001B0100081B0100081B0100081B010008B0
:1000C0001B0100081B0100081B0100081B010008A0
:1000D0001B0100081B0100081B0100081B01000890
:1000E0001B0100081B0100081B010008DFF80CD0F1
:1000F00000F02AF800480047E10C000858040020EE
:100100000648804706480047FEE7FEE7FEE7FEE7B1
:10011000FEE7FEE7FEE7FEE7FEE7FEE79F0B0008CF
:10012000ED000008D2B201E000F8012B491EFBD21D
:1001300070470022F6E710B513460A4604461946F2
:10014000FFF7F0FF204610BD064C074D06E0E068C3
:1001500040F0010394E8070098471034AC42F6D30E
:10016000FFF7C8FF500D0008700D0008FEE770474C
:100170007047000070B5044600F004F90546601CA5
:1001800002D004480078044400F0FCF8401BA04270
:10019000FAD370BD000000202DE9F84FDFF8B891C8
:1001A000002409F1040A0AF1040B23460F270BF17E
:1001B000040EC9E00125A5402A40AA427DD1674E20
:1001C000D1F804C0ACEB0608B44532D014DCBCF165
:1001D000030F3AD009DCBCF1000F2AD0BCF1010FAB
:1001E0001CD0BCF1020F31D11DE0BCF1110F17D0B2
:1001F000BCF1120F2AD119E0B8F5881F19D006DC1E
:10020000B8F5803F15D0B8F5801F1FD111E0B8F5C3
:10021000001F0ED0B8F5041F18D10AE0CB6815E016
:10022000CB681B1D12E0CB6808330FE0CB680C33A2
:100230000CE08B682BB1012B4FF0080303D0456114
:1002400004E0042302E0056100E00023FF2A01D856
:10025000064601E000F104064FEA840501D9A5F144
:100260002005D6F8008007FA05FC28EA0C0803FAF6
:1002700005F548EA0508C6F800804D68ED0062D52E
:10028000374DAE6946F00106AE61AD6924F0030654
:1002900005F001050095334D06EB050CDCF8085020
:1002A000A607360F07FA06F825EA0805DFF8B88032
:1002B000404503D14FF0000817E044E0DFF8AC8080
:1002C000404502D14FF001080FE0DFF8A48040451F
:1002D00002D14FF0020808E0DFF89880404502D1D3
:1002E0004FF0030801E04FF0040808FA06F848EA66
:1002F0000508CCF808804D68D9F80060ED034D463C
:1003000001D5164300E096432E604D68DAF8006090
:10031000AD03554601D5164300E096432E604D6867
:10032000DBF80060ED025D4601D5164300E0964320
:100330002E604D68DEF80060AD02754601D51643AB
:1003400000E096432E60641C0D682A46E5407FF469
:1003500031AFBDE8F88F000000040140000011102B
:10036000001002400000014000080140000C014064
:1003700000100140001401400AB1016170470904F6
:10038000FBE7000001488068704700000000002083
:1003900002488168027811448160704700000020A3
:1003A000074810B5016841F010010160032000F01A
:1003B00067F8002000F006F800F024F8002010BDD7
:1003C0000020024070B50D4D04464FF47A71287834
:1003D000B1FBF0F00A490968B1FBF0F000F0DEFA79
:1003E00048B9102C07D200222146501E00F028F8F0
:1003F00000206C6070BD012070BD00000000002076
:100400000C0000200C4808B5816941F001018161B0
:10041000816901F001010091C16941F08051C16120
:10042000C06900F0805000900448416821F0E0610C
:1004300041F00071416008BD001002400000014021
:10044000F0B40E4B1B680C46C3F30223C3F107053F
:10045000042D00D90425191D072901D2002300E02D
:10046000DB1E012606FA05F1491E214099409E40F7
:10047000761E16403143F0BC00F0F8BB0CED00E0F6
:10048000064900F0070208684FF6FF03184040EAEB
:100490000220034A10430860704700000CED00E0A2
:1004A0000000FA052DE9F0470F46050061D0434EE4
:1004B000306800F00700B84209D2306820F0070029
:1004C00038433060306800F00700B84251D12868E6
:1004D0003B4C810712D5400703D5606840F4E060CB
:1004E00060602878000703D5606840F46050606061
:1004F0006068A96820F0F000084360602878C007B1
:1005000028D06868012810D02168022810D08907F7
:1005100000292EDA616821F0030101436160FFF7D1
:1005200031FF804641F288390DE021688903EFE709
:100530008901EDE7FFF726FFA0EB0801494502D945
:100540000320BDE8F0876068696800F00C00B0EB3C
:10055000810FEFD1306800F00700B8420BD9306846
:1005600020F0070038433060306800F00700B842E0
:1005700001D00120E5E72878400705D56068E968E3
:1005800020F4E060084360602878000706D56068C2
:10059000296920F4605040EAC100606000F038F83A
:1005A0006168084AC1F30311515CC84006490860FC
:1005B00006480068FFF706FF0020C2E7002002405F
:1005C00000100240380D00080C000020040000203C
:1005D0000448054900684968044AC1F30221515C96
:1005E000C84070470C00002000100240480D000871
:1005F0000448054900684968044AC1F3C221515CB6
:10060000C84070470C00002000100240480D000850
:1006100012A185B00FC98DE80F0014A0144A00681C
:1006200004905168134801F00C03042B10D0082BE0
:100630000ED1C1F38343C9031DF803000AD55168E5
:1006400004AAC1F34041515C0A4A5043B0FBF1F0A7
:1006500005B0704708494843FAE700000203040563
:10066000060708090A0B0C0D0E0F101001020000FE
:100670000010024000127A0000093D002DE9F84FF9
:10068000040070D02078C04DC00749D06868C0F31E
:100690008100012807D06868C0F38100022809D1D1
:1006A0006868C00306D52868800339D560680028CB
:1006B000E7D035E06068B0F5803F0BD010B1B0F501
:1006C000A02F11D0286820F480302860286820F4FA
:1006D000802002E0286840F480302860606890B193
:1006E000FFF750FE06460AE0286840F480202860A4
:1006F000F0E700BFFFF746FE801B642873D8286828
:100700008003F7D50CE0FFF73DFE064605E000BF8D
:10071000FFF738FE801B6428F0D828688003F7D4E0
:1007200020789A4E80074FF001094FF0000839D524
:10073000686810F00C0F07D06868C0F381000228C9
:1007400009D16868C00306D42868800714D52069D9
:10075000012808D110E02069B0B1C6F80090FFF779
:1007600011FE074605E00AE1FFF70CFEC01B022858
:10077000C4D828688007F7D52868616920F0F80098
:1007800040EAC10028600DE0C6F80080FFF7FAFDDE
:10079000074604E0FFF7F6FDC01B022823D82868AF
:1007A0008007F7D4207800072CD57948A169D9B102
:1007B000C0F80090FFF7E6FD074604E0FFF7E2FD12
:1007C000C01B02280FD8686A8007F7D571484FF41C
:1007D000FA510068B0FBF1F0009000BF0098411E94
:1007E0000091FAD20EE080E0C0F80080FFF7CAFD69
:1007F000074604E0FFF7C6FDC01B022875D8686AEB
:100800008007F7D42078400760D5E8690027C0004A
:1008100008D4E86940F08050E861E869012700F0F9
:10082000805000905C480168C90513D40168834674
:1008300041F480710160FFF7A5FD824606E000BF2C
:10084000FFF7A0FDA0EB0A0064284ED8DBF80000FB
:10085000C005F5D5E06801280AD008B1052813D0F5
:10086000286A20F001002862286A20F0040002E0D3
:10087000286A40F001002862E06841F2883B98B1A4
:10088000FFF780FD82460BE0286A40F004002862F2
:10089000EEE700BFFFF776FDA0EB0A0159455AD8F5
:1008A000286A8007F6D50CE0FFF76CFD824605E06C
:1008B000FFF768FDA0EB0A0159454CD8286A80076C
:1008C000F6D41FB1E86920F08050E861E06988B390
:1008D0006968C1F38101022944D00228C6F860800A
:1008E00004D0FFF74FFD044638E034E0FFF74AFD3F
:1008F000074604E0FFF746FDC01B02282BD82868F6
:100900008001F7D4206AB0F5803F05D16868A168FE
:1009100020F4003008436860D4E90801084369689E
:1009200021F4741108436860C6F86090FFF72AFD4F
:10093000044606E025E000BFFFF724FD001B022867
:1009400009D828688001F7D51BE000BFFFF71AFD22
:10095000001B022802D90320BDE8F88F2868800117
:10096000F4D40EE00128F7D06868226A00F48031E0
:10097000914204D1616A00F47010884201D00120D4
:10098000EAE70020E8E700000010024000004242D1
:10099000800442420C0000200070004010B5401E50
:1009A000B0F1807F01D3012010BD4FF0E0246061E1
:1009B0000F21601700F05AF90020A0610720206184
:1009C000002010BD70B5040004D094F83D0000254F
:1009D00010B106E0012070BD84F83C50204600F0C4
:1009E00023F8242084F83D002068C16821F40051D8
:1009F000C160204600F0D4F82068016921F49041DC
:100A000001612068416921F02A0141612068C168C3
:100A100041F40051C1602564202084F83D0084F831
:100A20003E00002070BD000030B585B00024009469
:100A300001940294039400681449884224D1144814
:100A4000816941F480418161816901F480410491AF
:100A5000816941F00401816180690E4D00F004005C
:100A600004904FF400700090022001900320039046
:100A700069462846FFF790FB2815CDE90004694632
:100A800028460294FFF788FB05B030BD00380140CE
:100A90000010024000080140FEE7000030B585B0BC
:100AA000002000900190029003901648816941F067
:100AB00010018161816901F010010491816941F0A7
:100AC00020018161816901F020010491816941F077
:100AD000040181618069012200F004000A4D540381
:100AE000049021462846FFF747FC01210220CDE96A
:100AF0000210CDE9004169462846FFF74DFB05B0DD
:100B000030BD000000100240001001400C4810B53C
:100B10000A4901604FF4E1314160002181600C22FB
:100B2000C160C0E904128161C161FFF74BFF002879
:100B300003D0BDE81040FFF71BBB10BD00380140DB
:100B400014000020FEE7704770477047FFF720BC95
:100B500030B58FB028216846FFF7EBFA14210AA8B8
:100B6000FFF7E7FA01210804CDE900100024029400
:100B700002250491CDE907504FF4E0100990684632
:100B8000FFF77CFD0F20CDE90A056802CDE90C4096
:100B900002210AA80E94FFF785FC0FB030BD704704
:100BA00070B5044600680169E26821F440511143C0
:100BB00001612169A0680843616908432168CA6826
:100BC00041F20C639A430243CA6020684169A269FA
:100BD00021F44071114341611E492068884202D1CD
:100BE000FFF706FD01E0FFF7F3FC00EBC00101EBAE
:100BF0000012606864218000B2FBF0F3B3FBF1F3F4
:100C00006FF018067343B2FBF0F5B2FBF0F605EB9C
:100C10008305322303EB0515B5FBF1F5B6FBF1F6C1
:100C200005F0F00505EB0615B2FBF0F6B2FBF0F0AF
:100C3000B0FBF1F06FF01802504306EB800003EBBD
:100C40000010B0FBF1F0216800F00F00284488602C
:100C500070BD000000380140FEE70000014A024973
:100C600000F023B8CD0C0008100000200907090E81
:100C7000002804DB00F1E02080F80014704700F049
:100C80000F0000F1E02080F8141D704702E008C852
:100C9000121F08C1002AFAD170477047002001E0F6
:100CA00001C1121F002AFBD170472DE9F041164601
:100CB0000F460446002503E03946B047641C6D1C0E
:100CC00020780028F8D12846BDE8F08103490A6859
:100CD0001206FCD50149091D086070470038014023
:100CE000FFF75EFBFFF734FFFFF7D8FEFFF70EFFBD
:100CF0000C4C4FF400564FF4FA7500223146204652
:100D0000FFF73AFB2846FFF735FA01223146204625
:100D1000FFF732FB2846FFF72DFA03A0FFF79EFFEF
:100D2000EBE700000010014048656C6C6F206338F1
:100D30007436210A000000000000000000000000DE
:100D40000102030406070809000000000102030471
:100D5000700D000800000020140000008C0C00083A
:100D6000840D000814000020440400009C0C0008BE
:100D70000100000010000000000000000024F4004A
:040D8000000000006F
:04000005080000ED02
:00000001FF
